:040000000200ED32DB
:03000B000200F4FC
:0300110002000EDC
:03000E000200C12C
:200014007528418522E060FB20E7F815227F0110AF027F008520E060FB20E7F81520E526F7
:200034002423F8A6287402B526067D007E008009AC260CECFD3395E0FE8D260520EF1392EB
:20005400AF0521745AB528067E417F008009AD280DEDFE3395E0FF8E2880A8438920758DFF
:20007400FA759850D28E8521E060FB20E7F815217F0110AF027F008520E060FB20E7F815EB
:2000940020E5272423F9879910990280FB7402B527067D007E008009AC270CECFD3395E04E
:2000B400FE8D270520EF1392AF052280B97F0110AF027F007525007524007523007526008C
:2000D400752700752001752100752203EF1392AF90001412012A02006F0200F82222222293
:0400F40002027A3258
:2000F80075890075A882D28C753500753A01753B02753C04753D089000C112012A858234A9
:20011800E5342430F98781D0D0D083D082D0F0D0E022740FB535047582FF227F0110AF02B8
:200138007F0075370074FC25374044AE378EF005F07E017D008006EE2EFEED33FDD5F0F75F
:20015800AB357C00EB5206EC5205EE4D701AAE378EF005F07401800225E0D5F0FBFEAD35EC
:200178004DF5358537368007E53704F53780B6858138E537C454F0FE243FF581C082C08337
:200198007400C0E0C0E0C0E0C0E0E537FEC40354F8F539C039E5362430F8A681853881EF44
:2001B8001392AF853682227F0110AF027F00C0E0C0F0C082C083C0D0E5342430F8A681744F
:2001D80003B534067D007E008009AC340CECFD3395E0FE8D34E534243AF9E7FE553560DF37
:2001F800E5342430F98781D0D0D083D082D0F0D0E0EF1392AF227F0110AF027F00AE348E2F
:20021800F005F07401800225E0D5F0FBF4FEAD355DF5357403B534067D007E008009AC3400
:200238000CECFD3395E0FE8D34AE348EF005F07E017D008006EE2EFEED33FDD5F0F7AB35A0
:200258007C00EB5206EC5205EE4D60C7E5342430F98781D0D0D083D082D0F0D0E0EF13926B
:20027800AF22C0E0C0F0C082C083C0D0E5342430F8A68189E08AF08B828C838DD08E388FF3
:20029800397403B534067E007F008009AD340DEDFE3395E0FF8E34E534243AF9E7FF5535FF
:2002B80060DFA9E0AAF0AB82AC83ADD0AE38AF39E5342430F98781D0D0D083D082D0F0D0DA
:0302D800E03222EF
:00000001FF
