:040000000201543273
:03000B0002015B94
:0300110002000EDC
:03000E00020122CA
:200014007538418532E060FB20E7F815327F0110AF027F008530E060FB20E7F81530E53697
:200034002433F8A6387402B536067D007E008009AC360CECFD3395E0FE8D360530EF13928B
:20005400AF0531745AB538067E417F008009AD380DEDFE3395E0FF8E3812022680A57539C8
:20007400308532E060FB20E7F815327F0110AF027F008530E060FB20E7F81530E53624339E
:20009400F8A6397402B536067D007E008009AC360CECFD3395E0FE8D360530EF1392AF05CD
:2000B400317439B539067E307F008009AD390DEDFE3395E0FF8E3912022680A54389207598
:2000D4008DFA759850D28E8531E060FB20E7F815317F0110AF027F008530E060FB20E7F8E3
:2000F4001530E5372433F9879910990280FB7402B537067D007E008009AC370CECFD339569
:20011400E0FE8D370530EF1392AF053280B97F0110AF027F007535007534007533007536DB
:2001340000753700753001753100753203EF1392AF9000141201919000721201910200D006
:0B01540002015F222222220202E1329F
:20015F0075890075A882D28C752500752A01752B02752C04752D08900122120191858224D8
:20017F00E5242420F98781D0D0D083D082D0F0D0E022740FB525047582FF227F0110AF0281
:20019F007F0075270074FC25274044AE278EF005F07E017D008006EE2EFEED33FDD5F0F728
:2001BF00AB257C00EB5206EC5205EE4D701AAE278EF005F07401800225E0D5F0FBFEAD25B5
:2001DF004DF5258527268007E52704F52780B6858128E527C454F0FE243FF581C082C08340
:2001FF007400C0E0C0E0C0E0C0E0E527FEC40354F8F529C029E5262420F8A681852881EF3D
:20021F001392AF852682227F0110AF027F00C0E0C0F0C082C083C0D0E5242420F8A6817417
:20023F0003B524067D007E008009AC240CECFD3395E0FE8D24E524242AF9E7FE552560DF2F
:20025F00E5242420F98781D0D0D083D082D0F0D0E0EF1392AF227F0110AF027F00AE248EF7
:20027F00F005F07401800225E0D5F0FBF4FEAD255DF5257403B524067D007E008009AC24D9
:20029F000CECFD3395E0FE8D24AE248EF005F07E017D008006EE2EFEED33FDD5F0F7AB2569
:2002BF007C00EB5206EC5205EE4D60C7E5242420F98781D0D0D083D082D0F0D0E0EF139224
:2002DF00AF22C0E0C0F0C082C083C0D0E5242420F8A68189E08AF08B828C838DD08E288FBC
:2002FF00297403B524067E007F008009AD240DEDFE3395E0FF8E24E524242AF9E7FF552508
:20031F0060DFA9E0AAF0AB82AC83ADD0AE28AF29E5242420F98781D0D0D083D082D0F0D0B2
:03033F00E0322287
:00000001FF
